:100000000C945E000C9486000C9486000C94860080
:100010000C9486000C9486000C9486000C94860048
:100020000C9486000C9486000C9486000C94860038
:100030000C9486000C9486000C9486000C94860028
:100040000C9450040C9486000C941E040C94F80339
:100050000C9486000C9486000C9486000C94860008
:100060000C949A040C9486000000000024002700E1
:100070002A0000000000250028002B0004040404CE
:100080000404040402020202020203030303030342
:10009000010204081020408001020408102001021F
:1000A00004081020000000080002010000030407FB
:1000B0000000000000000000C805D40711241FBE86
:1000C000CFEFD8E0DEBFCDBF23E0AEE7B1E001C0A7
:1000D0001D92AC30B207E1F711E0A0E0B1E0E4E638
:1000E000F4E102C005900D92AE37B107D9F710E0E8
:1000F000CDE5D0E004C02197FE010E942308CC3555
:10010000D107C9F70E9429060C94250A0C94000017
:1001100090E0FC01EC55FF4F2491FC01E057FF4FAC
:100120003491FC01E458FF4FE491EE23B1F1222316
:1001300039F1233091F038F42130A9F0223001F563
:1001400084B58F7D12C0273091F02830A1F0243083
:10015000B9F4809180008F7D03C0809180008F77FB
:10016000809380000DC084B58F7784BD09C08091D5
:10017000B0008F7703C08091B0008F7D8093B00076
:10018000F0E0EE0FFF1FEE58FF4FA591B4918FB72F
:10019000F894EC91E32BEC938FBF0895CF92DF920C
:1001A000EF92FF920F931F93CF93DF936C017A012D
:1001B0008B01C0E0D0E0CE15DF0581F0D8016D9154
:1001C0008D01D601ED91FC910190F081E02DC601E9
:1001D0000995892B11F02196EECF7E01C701DF91A1
:1001E000CF911F910F91FF90EF90DF90CF900895E6
:1001F00008950895FC01538D448D252F30E0842F00
:1002000090E0821B930B541710F0CF96089501973E
:100210000895FC01918D828D981761F0828DDF0128
:10022000A80FB11D5D968C91928D9F5F9F73928FE9
:1002300090E008958FEF9FEF0895FC01918D828DDE
:10024000981731F0828DE80FF11D858D90E00895AB
:100250008FEF9FEF0895FC01918D228D892F90E003
:10026000805C9F4F821B91098F73992708958BE3C0
:1002700092E00E942B0121E0892B09F420E0822FDB
:100280000895FC01848DDF01A80FB11DA35ABF4F53
:100290002C91848D90E001968F739927848FA68985
:1002A000B7892C93A089B1898C91837080648C93D9
:1002B000938D848D981306C00288F389E02D808188
:1002C0008F7D80830895EF92FF920F931F93CF93BA
:1002D000DF93EC0181E0888F9B8D8C8D981305C096
:1002E000E889F989808185FD26C0F62E0B8D10E006
:1002F0000F5F1F4F0F731127E02E8C8DE8120CC07B
:100300000FB607FCFACFE889F989808185FFF5CF20
:10031000CE010E944101F1CF8B8DFE01E80FF11D4E
:10032000E35AFF4FF0829FB7F8940B8FEA89FB895D
:10033000808180620AC09FB7F894EE89FF8960834C
:10034000E889F98980818370806480839FBF81E020
:1003500090E0DF91CF911F910F91FF90EF90089562
:10036000CF93DF93EC01888D8823C9F0EA89FB895C
:10037000808185FD05C0A889B9898C9186FD0FC053
:100380000FB607FCF5CF808185FFF2CFA889B98928
:100390008C9185FFEDCFCE010E944101E7CFDF9127
:1003A000CF91089580E090E0892B29F00E943701D9
:1003B00081110C94000008953FB7F89480912C02AD
:1003C00090912D02A0912E02B0912F0226B5A89BEC
:1003D00005C02F3F19F00196A11DB11D3FBFBA2FD7
:1003E000A92F982F8827820F911DA11DB11DBC0137
:1003F000CD0142E0660F771F881F991F4A95D1F7FC
:1004000008958F929F92AF92BF92CF92DF92EF9218
:10041000FF926B017C010E94DC014B015C01C11465
:10042000D104E104F104F1F00E94DC01DC01CB0114
:1004300088199909AA09BB09883E9340A105B1050D
:1004400070F321E0C21AD108E108F10888EE880EA5
:1004500083E0981EA11CB11CC114D104E104F10475
:1004600019F7DDCFFF90EF90DF90CF90BF90AF9066
:100470009F908F90089585ED8093BC008091BC0083
:1004800084FDFCCF1092360208954091BE01262FC4
:1004900030E0240F311D21323105DCF42091360289
:1004A0002430C9F4FC0180E090E0861758F43091C4
:1004B000BE012191DC01A256BE4FA30FB11D2C93AA
:1004C0000196F3CF8091BE01680F6093BE0180E07A
:1004D000089581E0089582E008950895E0913A0238
:1004E00080913902E81730F4F0E0E258FE4F808145
:1004F00090E008958FEF9FEF089590913A028091D8
:100500003902981750F4E92FF0E0E258FE4F2081AD
:1005100030E09F5F90933A0202C02FEF3FEFC90196
:1005200008958091390290E020913A02821B91094E
:100530000895CF92DF92EF92FF920F931F93CF9384
:10054000DF937C01CB018A0120910502222389F0EF
:10055000EB016B01C40ED51ECC15DD0569F0699168
:10056000D701ED91FC910190F081E02DC701099533
:10057000F3CF642F0E944502C801DF91CF911F91F4
:100580000F91FF90EF90DF90CF900895CF93DF937E
:100590001F92CDB7DEB76983209105022223D1F0E7
:1005A00020913702203240F021E030E0FC0133831B
:1005B000228380E090E015C080913802E82FF0E0BF
:1005C000EA5FFD4F998190838F5F8093380280931B
:1005D000370205C061E0CE0101960E94450281E02C
:1005E00090E00F90DF91CF910895CF93FC01C481EB
:1005F00021E020930502C093260210923802109247
:1006000037028385682B88ED92E00E94C6029091A4
:100610003702913208F045C0809136028111FCCF3B
:1006200082E08093360281E0809335028FEF8093E1
:1006300004021092030290930202A6E0B2E0E2EEFE
:10064000F1E080E0981721F02D9121938F5FFACF90
:100650001092E1018091E101CC0FC82BC093E10120
:1006600080913402813061F4109234028091E10172
:100670008093BB008091BC0083FDF8CF85EC01C066
:1006800085EE8093BC00809136028230E1F3809148
:1006900004028F3F31F080910402803211F080918A
:1006A0000402109238021092370210920502CF9184
:1006B00008950F931F93CF938C01C62F0E94F502CC
:1006C0006C2F6460C8010E94F5026C2F6B7FC8011B
:1006D0000E94F50283EC90E00197F1F7CF911F9112
:1006E0000F9108950F931F93CF93DF938C01C62F23
:1006F000D42F607F642B0E94590380E1C89FB00112
:1007000011246D2BC801DF91CF911F910F910C9493
:10071000590341E00E94720381E090E0089508953A
:1007200080E090E008956115710579F0FB0101907A
:100730000020E9F73197AF01461B570BDC01ED9123
:10074000FC910280F381E02D099480E090E008950F
:10075000EF92FF920F931F93CF93DF93EC011982D7
:1007600018821B821A821D821C8261157105B9F1E3
:100770007B01FB0101900020E9F731978F01061BF7
:10078000170BB8016F5F7F4F80E090E00E944A092D
:10079000009759F0998388831B830A832C813D81BC
:1007A000232B81F4FC0110820DC088819981009770
:1007B00011F00E94C108198218821D821C821B82BE
:1007C0001A820DC01D830C83B70188819981DF9146
:1007D000CF911F910F91FF90EF900C941E0ADF9123
:1007E000CF911F910F91FF90EF9008950E94100AF2
:1007F0001F920F920FB60F9211242F933F934F9396
:100800005F936F937F938F939F93AF93BF93EF9378
:10081000FF938BE392E00E944101FF91EF91BF9122
:10082000AF919F918F917F916F915F914F913F9188
:100830002F910F900FBE0F901F9018951F920F923F
:100840000FB60F9211242F938F939F93EF93FF93E3
:10085000E0914B02F0914C028081E0915102F091C5
:10086000520282FD12C09081809154028F5F8F737B
:1008700020915502821751F0E0915402F0E0E55CBE
:10088000FD4F958F8093540201C08081FF91EF91BD
:100890009F918F912F910F900FBE0F901F901895E1
:1008A0001F920F920FB60F9211242F933F938F93A5
:1008B0009F93AF93BF938091280290912902A091BA
:1008C0002A02B0912B023091270223E0230F2D370B
:1008D00020F40196A11DB11D05C026E8230F029644
:1008E000A11DB11D20932702809328029093290215
:1008F000A0932A02B0932B0280912C0290912D029A
:10090000A0912E02B0912F020196A11DB11D8093DE
:100910002C0290932D02A0932E02B0932F02BF9130
:10092000AF919F918F913F912F910F900FBE0F909C
:100930001F9018951F920F920FB60F9211242F93AC
:100940003F934F935F936F937F938F939F93AF9357
:10095000BF93EF93FF938091B900887F803609F4AD
:100960009CC068F5883209F45BC090F4803109F4CA
:1009700054C038F4882309F4F6C0883009F44DC017
:10098000F6C0883109F44CC0803209F45DC0EFC074
:10099000803409F468C048F4803309F455C08833C2
:1009A00009F0E5C080930402D8C0803509F44FC037
:1009B000883509F45DC0883409F0D9C0D6C08839BB
:1009C00009F4C7C0A8F4883709F467C038F488363A
:1009D00009F463C0803709F460C0C9C0883809F4DD
:1009E000B8C0803909F45FC0803809F0C0C05BC06E
:1009F000803B09F486C038F4803A09F466C0883A2E
:100A000009F47FC0B4C0803C09F4A7C0883C09F455
:100A1000A4C0883B09F48AC0AAC08091E10110C03B
:100A20009091030280910202981770F5E091030201
:100A300081E08E0F80930302F0E0EE51FE4F808143
:100A40008093BB0085EC86C0809304028EC0E09149
:100A5000030281E08E0F809303028091BB00F0E0DF
:100A6000EE51FE4F808390910302809102026EC08E
:100A7000E091030281E08E0F809303028091BB001E
:100A8000F0E0EE51FE4F80838091350281116DC000
:100A900081E08093340284EA61C083E0809336026F
:100AA0001092E001CFCF8091E001803208F051C078
:100AB000E091E00181E08E0F8093E0018091BB0026
:100AC000F0E0E054FE4F8083BDCF85EC8093BC0006
:100AD000109236028091E001803230F4E091E00122
:100AE000F0E0E054FE4F10826091E00170E0E09190
:100AF0003002F091310280EC91E009951092E00112
:100B000036C084E0809336021092BF011092BE017D
:100B1000E0913202F091330209958091BE0181117A
:100B200005C081E08093BE0110929E01E091BF015B
:100B300081E08E0F8093BF01F0E0E256FE4F80818E
:100B40008093BB009091BF018091BE01981708F47B
:100B500079CF85E88093BC000AC085EC8093BC0007
:100B60001092360204C0109204020E943B02FF91D0
:100B7000EF91BF91AF919F918F917F916F915F9115
:100B80004F913F912F910F900FBE0F901F9018958E
:100B9000EBE3F2E01382128288EE93E0A0E0B0E093
:100BA00084839583A683B7832AE031E03183208351
:100BB00025EC30E03587248724EC30E03787268722
:100BC00020EC30E0318B208B21EC30E0338B228B1A
:100BD00022EC30E0358B248B26EC30E0378B268BF3
:100BE000118E128E138E148EE8EDF2E013821282B3
:100BF00084839583A683B7838CE191E0918380837E
:100C0000ECEFF2E0138212828EE291E09183808316
:100C100087E2848380E1808782E08187128688E092
:100C2000838766E371E086EF92E00E94A80366E3A3
:100C300071E080EF92E00E94A80366E371E08AEE23
:100C400092E00E94A80368E771E084EE92E00C94C1
:100C5000A803CF93DF9300D000D000D0CDB7DEB78C
:100C6000789484B5826084BD84B5816084BD85B587
:100C7000826085BD85B5816085BD80916E00816093
:100C800080936E0010928100809181008260809339
:100C9000810080918100816080938100809180003B
:100CA0008160809380008091B10084608093B10066
:100CB0008091B00081608093B00080917A00846060
:100CC00080937A0080917A00826080937A0080918C
:100CD0007A00816080937A0080917A0080688093A6
:100CE0007A001092C100E8E9F0E02491E4E8F0E035
:100CF0008491882399F090E0880F991FFC01E859AE
:100D0000FF4FA591B491FC01EE58FF4F859194914E
:100D10008FB7F894EC91E22BEC938FBF10923A02CC
:100D20001092390210923802109237021092360255
:100D300081E0809335021092340282E10E948800A3
:100D400083E10E9488008091B9008E7F8093B90072
:100D50008091B9008D7F8093B90088E48093B800BA
:100D600085E48093BC0088EF90E0909333028093F9
:100D7000320289EF90E0909331028093300210921A
:100D8000010380910503823018F098E090930103ED
:100D900090910603992339F0813029F48091010361
:100DA00084608093010362E370E080E090E00E9441
:100DB0000102609107038CEF92E00E94F50268EE59
:100DC00073E080E090E00E94010260E38CEF92E02B
:100DD0000E9459030BE416E4C8010197F1F760E3A0
:100DE0008CEF92E00E945903C8010197F1F760E38C
:100DF0008CEF92E00E94590383E592E00197F1F7AE
:100E000060E28CEF92E00E945903609101036062FE
:100E100040E08CEF92E00E94720384E08093020332
:100E200040E06CE08CEF92E00E94720340E061E0F1
:100E30008CEF92E00E9472030BE31FE1C80101975F
:100E4000F1F782E0F82EF092030340E066E08CEFC9
:100E500092E00E94720340E062E08CEF92E00E9418
:100E60007203C8010197F1F788E08093070360E0FF
:100E70008CEF92E00E94F50240E060E88CEF92E097
:100E80000E9472036BE371E08CEF92E00E94930387
:100E90006CE471E08CEF92E00E949303E0914B02CE
:100EA000F0914C02F082E0914702F09148021082EA
:100EB000E0914902F0914A028FEC80831092530234
:100EC000E0914F02F091500286E08083E0914D0264
:100ED000F0914E02808180618083E0914D02F0911B
:100EE0004E02808188608083E0914D02F0914E0235
:100EF000808180688083E0914D02F0914E02808174
:100F00008F7D80834DE050E064E671E08BE392E0FA
:100F10000E94CE008BE392E00E942B011816190666
:100F2000ACF48BE392E00E940901682F880F770BE5
:100F30006E587E4F8BE392E00E9493038BE392E026
:100F40000E94B00188E00E94880006C069E771E055
:100F5000CE0101960E94A803E980FA80E114F10411
:100F600089F06D817E816F5F7F4F80E090E00E940D
:100F70004A098C01009741F0FC011082B7010E94E0
:100F80001E0A02C000E010E064EF71E080E090E033
:100F90000E940102C8010E94C10889819A810E94B1
:100FA000C1080E94D201AECF8091E4029091E50287
:100FB0000E94C1088091EA029091EB020E94C10850
:100FC0008091F0029091F1020E94C1088091F60296
:100FD0009091F7020C94C1082F923F924F925F922A
:100FE0006F927F928F929F92AF92BF92CF92DF9239
:100FF000EF92FF920F931F93CF93DF93CDB7DEB79E
:10100000CA1BDB0B0FB6F894DEBF0FBECDBF099431
:101010002A88398848885F846E847D848C849B8488
:10102000AA84B984C884DF80EE80FD800C811B8196
:10103000AA81B981CE0FD11D0FB6F894DEBF0FBEC5
:10104000CDBFED010895EE0FFF1F0590F491E02D47
:1010500009940F931F93CF93DF938230910510F47F
:1010600082E090E0E0910A03F0910B0320E030E091
:10107000A0E0B0E0309719F14081518102811381E5
:1010800048175907C8F08417950769F4109731F08D
:1010900012960C93129713961C9327C000930A0381
:1010A00010930B0322C02115310519F04217530785
:1010B00018F49A01BD01EF01DF01F801DBCF211522
:1010C0003105F9F0281B390B2430310580F48A8171
:1010D0009B816115710521F0FB019383828304C01C
:1010E00090930B0380930A03FE01329644C0FE01E5
:1010F000E20FF31F819391932250310939832883A2
:101100003AC02091080330910903232B41F4209128
:1011100002013091030130930903209308032091C9
:101120000001309101012115310541F42DB73EB781
:101130004091040150910501241B350BE0910803F7
:10114000F0910903E217F307A0F42E1B3F0B2817B9
:10115000390778F0AC014E5F5F4F2417350748F030
:101160004E0F5F1F5093090340930803819391939F
:1011700002C0E0E0F0E0CF01DF91CF911F910F912D
:101180000895CF93DF93009709F481C0FC01329753
:1011900013821282A0910A03B0910B03109781F47D
:1011A00020813181820F931F209108033091090320
:1011B0002817390751F5F0930903E093080367C036
:1011C000ED0120E030E0CE17DF0740F44A815B817B
:1011D0009E0141155105F1F0EA01F5CFD383C28399
:1011E00040815181840F951FC817D90759F4888110
:1011F0009981840F951F0296918380838A819B81B8
:10120000938382832115310529F4F0930B03E09336
:101210000A033DC0E901FB83EA8349915991C40F58
:10122000D51FEC17FD0761F480819181840F951F14
:101230000296E90199838883828193819B838A83C3
:10124000E0E0F0E012968D919C911397009719F0D1
:10125000FD01DC01F7CF8D919C9111979D012E5FCF
:101260003F4F820F931F20910803309109032817E5
:10127000390769F4309729F410920B0310920A038E
:1012800002C013821282B0930903A0930803DF9176
:10129000CF910895A0E0B0E0E0E5F9E00C94F0070C
:1012A000EC01009721F4CB010E942908B4C0FC0195
:1012B000E60FF71F9C0122503109E217F30708F4EB
:1012C000A8C0D9010D911C91119706171707B0F00E
:1012D0000530110508F49BC0C801049786179707CD
:1012E00008F495C002501109061B170B01931193C6
:1012F0006D937C93CF010E94C10889C05B01A01A45
:10130000B10A4C01800E911EA0910A03B0910B030B
:10131000612C712CE12CF12C109709F446C08D91B1
:101320009C911197A815B905B1F56C0142E0C40E66
:10133000D11CCA14DB0478F14C018A189B086401A3
:1013400042E0C40ED11C1296BC9012971396AC9139
:10135000B5E0CB16D10440F0B282A38391828082A3
:10136000D9016D937C9309C00E5F1F4F800F911FB1
:10137000F90191838083EB2DFA2FE114F10431F010
:10138000D7011396FC93EE93129741C0F0930B0391
:10139000E0930A033CC06816790608F43C017D011D
:1013A00012960D90BC91A02DB7CF8091080390911B
:1013B000090388169906E1F466167706C8F4809149
:1013C000000190910101009741F48DB79EB74091C3
:1013D000040150910501841B950BE817F907C8F427
:1013E000F0930903E0930803F901718360830FC050
:1013F000CB010E9429087C01009759F0A801BE0189
:101400000E94150ACE010E94C108C70104C0CE0186
:1014100002C080E090E0CDB7DEB7EEE00C940C089F
:1014200081E090E0F8940C94250AFB01DC0102C0F5
:1014300001900D9241505040D8F70895FB01DC0116
:1014400001900D920020E1F7089510E0CDE5D0E085
:1014500004C0FE010E9423082196CE35D107C9F7AA
:04146000F894FFCF2E
:1014640000000C038000000000006301CE00FA00BD
:10147400B0012B0109011D0100000000C602990200
:1014840090036D0291027D026E0200000000890348
:10149400CE0090038F03424F4F5400537461727413
:1014A400696E67204D6F6E69746F7200536572695F
:1014B400616C205261746520436F6E666967757252
:1014C4006564200052656164696E672042797465C1
:0E14D4007300444154413A20004E554C4C00E8
:107E0000112484B714BE81FFF0D085E080938100F7
:107E100082E08093C00088E18093C10086E0809377
:107E2000C20080E18093C4008EE0C9D0259A86E02C
:107E300020E33CEF91E0309385002093840096BBD3
:107E4000B09BFECF1D9AA8958150A9F7CC24DD24C4
:107E500088248394B5E0AB2EA1E19A2EF3E0BF2EE7
:107E6000A2D0813461F49FD0082FAFD0023811F036
:107E7000013811F484E001C083E08DD089C08234E0
:107E800011F484E103C0853419F485E0A6D080C0E4
:107E9000853579F488D0E82EFF2485D0082F10E0AE
:107EA000102F00270E291F29000F111F8ED06801E7
:107EB0006FC0863521F484E090D080E0DECF843638
:107EC00009F040C070D06FD0082F6DD080E0C81688
:107ED00080E7D80618F4F601B7BEE895C0E0D1E017
:107EE00062D089930C17E1F7F0E0CF16F0E7DF06D8
:107EF00018F0F601B7BEE89568D007B600FCFDCFD4
:107F0000A601A0E0B1E02C9130E011968C91119780
:107F100090E0982F8827822B932B1296FA010C0160
:107F200087BEE89511244E5F5F4FF1E0A038BF0790
:107F300051F7F601A7BEE89507B600FCFDCF97BE46
:107F4000E89526C08437B1F42ED02DD0F82E2BD052
:107F50003CD0F601EF2C8F010F5F1F4F84911BD097
:107F6000EA94F801C1F70894C11CD11CFA94CF0C13
:107F7000D11C0EC0853739F428D08EE10CD085E9AC
:107F80000AD08FE07ACF813511F488E018D01DD067
:107F900080E101D065CF982F8091C00085FFFCCF94
:107FA0009093C60008958091C00087FFFCCF809118
:107FB000C00084FD01C0A8958091C6000895E0E648
:107FC000F0E098E1908380830895EDDF803219F02E
:107FD00088E0F5DFFFCF84E1DECF1F93182FE3DFCA
:107FE0001150E9F7F2DF1F91089580E0E8DFEE27F6
:047FF000FF270994CA
:027FFE00040479
:0400000300007E007B
:00000001FF