S01700004D6F6E69746F725F48616E646C65722E7372656308
S11300000C94FB000C9423010C9423010C94230105
S11300100C9423010C9423010C9423010C942301CC
S11300200C9423010C9423010C9423010C942301BC
S11300300C9423010C9423010C9423010C942301AC
S11300400C94DB070C9423010C94ED060C941F070D
S11300500C9423010C9423010C9423010C9423018C
S11300600C947F0E0C9423014E414E494E49545931
S1130070494E46CDCCCC3D0AD7233C17B7D138776F
S1130080CC2B329595E6241FB14F0A000020410085
S113009000C84200401C4620BCBE4CCA1B0E5AAECF
S11300A0C59D7400407A10F35A00A0724E180900DE
S11300B010A5D4E80000E87648170000E40B5402C9
S11300C00000CA9A3B000000E1F505000080969804
S11300D000000040420F000000A086010000001054
S11300E02700000000E80300000000640000000096
S11300F0000A00000000000100000000002C76D877
S113010088DC674F0823DFC1DFAE59E1B1B796E55C
S1130110E3E453C63AE651997696E8E6C28426EBC0
S1130120898C9B62ED407C6FFCEFBC9C9F40F2BAD3
S1130130A56FA5F490055A2AF75C936B6CF9676D6B
S1130140C11BFCE0E40D47FEF520E6B500D0ED90C0
S11301502E0300943577050080841E080000204E8D
S11301600A000000C80C333333330F986E12831126
S113017041EF8D2114893BE65516CFFEE6DB18D1FD
S1130180844B381BF77C1D901DA4BBE424203284CF
S1130190725E228100C9F124ECA1E53D2700000034
S11301A00800020100000304070000000000000032
S11301B000010204081020408001020408102001FC
S11301C002040810200404040404040404020202C7
S11301D002020203030303030300000000250028B6
S11301E0002B0000000000240027002A0000AE03BA
S11301F04F07C40DD60311241FBECFEFD8E0DEBFD6
S1130200CDBF11E0A0E0B1E0E2EDFDE202C0059057
S11302100D92AC3CB107D9F723E0ACECB1E001C0DE
S11302201D92A737B207E1F710E0CAEFD0E004C08F
S11302302197FE010E947810C73FD107C9F70E9499
S11302407D070C94DC160C9400008BEF91E00E9467
S11302506B0C8BEF91E00E94DB0B40E060E08BEFD6
S113026091E00E942F0C6FE071E08BEF91E00C9411
S1130270D90761E088E00E94F5080E94250126E084
S113028040E855E260E070E087E092E00C94840678
S11302908330910539F48BEF91E00E94210C60E2E8
S11302A071E01CC08130910539F48BEF91E00E941C
S11302B0210C61E371E012C08230910539F48BEFB7
S11302C091E00E94210C63E471E008C0892B51F491
S11302D08BEF91E00E94210C66E571E08BEF91E0D9
S11302E00C94D9070895CF93DF93CDB7DEB76E97FB
S11302F00FB6F894DEBF0FBECDBF4091F701509109
S1130300F8016091F9017091FA0122E0CE0107969B
S11303100E94900A66E671E0CE0101960E94CF0920
S1130320BE01695F7F4FCE0101960E94010B67E712
S113033071E00E94140B67EE71E00E94010BBC0196
S1130340CE0149960E94380ACE0101960E946109A5
S1130350CE0107960E9461094091F3015091F40186
S11303606091F5017091F60122E0CE0107960E949A
S1130370900A6DE671E0CE0101960E94CF09BE019C
S1130380695F7F4FCE0101960E94010B67E771E020
S11303900E94140B61EE71E00E94010BBC01CE01BE
S11303A043960E94380ACE0101960E946109CE014B
S11303B007960E94610920E030E040E05FE360912D
S11303C0EF017091F0018091F1019091F2010E948E
S11303D087040E94F8044AE0CE0107960E94640A4A
S11303E062E771E0CE0101960E94CF09BE01695F08
S11303F07F4FCE0101960E94010BBC01CE010D96E8
S11304000E94380ACE0101960E946109CE01079626
S11304100E9461098BEF91E00E94210C40E060E0B2
S11304208BEF91E00E942F0CBE01675E7F4F8BEF34
S113043091E00E94CB0741E060E08BEF91E00E94E5
S11304402F0CBE01635F7F4F8BEF91E00E94CB07BF
S113045041E06CE08BEF91E00E942F0C69ED71E0BC
S11304608BEF91E00E94CB07CE010D960E946109AB
S1130470CE0143960E946109CE0149960E9461090A
S11304806E960FB6F894DEBF0FBECDBFDF91CF914D
S11304900895FF920F931F93CF93DF9300D000D062
S11304A000D0CDB7DEB78C0169E771E0CE010196CB
S11304B00E94CF09BE016F5F7F4FC8010E94530B9A
S11304C0F82ECE0101960E946109FF20B9F0F801CF
S11304D02481358143E050E0B801CE0101960E94A9
S11304E0620BCE0101960E94B20B6093F7017093E8
S11304F0F8018093F9019093FA0153C06DE771E01C
S1130500CE0101960E94CF09BE016F5F7F4FC801E3
S11305100E94530BF82ECE0101960E946109FF2020
S1130520B9F0F8012481358143E050E0B801CE01EF
S113053001960E94620BCE0101960E94B20B609359
S1130540F3017093F4018093F5019093F60129C0AF
S113055061E871E0CE0101960E94CF09BE016F5F90
S11305607F4FC8010E94530BF82ECE0101960E94C2
S11305706109FF20D1F0F8012481358143E050E086
S1130580B801CE0101960E94620BCE0101960E9431
S1130590B20B6093EF017093F0018093F10190939B
S11305A0F201CE0101960E94610965E871E0CE0175
S11305B001960E94CF09BE016F5F7F4FC8010E9460
S11305C0530BF82ECE0101960E946109FF20A9F079
S11305D0F8012481358143E050E0B801CE01019651
S11305E00E94620BBE016F5F7F4F82ED91E00E941B
S11305F0410ACE0101960E94610926960FB6F8942D
S1130600DEBF0FBECDBFDF91CF911F910F91FF9041
S11306100895CF92DF92EF92FF92C090F701D090AD
S1130620F801E090F901F090FA0120E030E04CEAA2
S113063051E4C701B6010E94F30418169CF020E0AF
S113064030E044E951E4C701B6010E94A30587FDE7
S113065009C081E090E09093EE018093ED0169E898
S113066071E023C020E030E044E951E4C701B60161
S11306700E94F30487FF09C082E090E09093EE01AA
S11306808093ED016EE871E010C020E030E04CEAA8
S113069051E4C701B6010E94A305181654F4109240
S11306A0EE011092ED0162E971E087EE91E00E94A3
S11306B04D0AC090EF01D090F001E090F101F0906C
S11306C0F20120E030EC48EA54E4C701B6010E948C
S11306D0F30418169CF020E030E443E854E4C70126
S11306E0B6010E94A30587FD09C081E090E09093C4
S11306F0E0018093DF0169E871E023C020E030E489
S113070043E854E4C701B6010E94F30487FF09C01B
S113071082E090E09093E0018093DF016EE871E065
S113072010C020E030EC48EA54E4C701B6010E944E
S1130730A305181674F41092E0011092DF0162E927
S113074071E089ED91E0FF90EF90DF90CF900C94F1
S11307504D0AFF90EF90DF90CF9008950F9300E043
S113076022E040E167E28BEF91E00E94B40B67E97D
S113077071E087EE91E00E94CF0967E971E081EEB4
S113078091E00E94CF0967E971E089ED91E00E9450
S1130790CF0968E771E082ED91E00E94CF0968E734
S11307A071E08CEC91E00F910C94CF098CEC91E00A
S11307B00E94610982ED91E00E94610989ED91E056
S11307C00E94610981EE91E00E94610987EE91E047
S11307D00C946109FF920F931F93CF93DF9300D082
S11307E000D000D0CDB7DEB78C0168E771E0CE0150
S11307F001960E94CF09809106018823B1F087E019
S113080092E00E94C205F82E682FCE0101960E9444
S1130810EE0A83E2F81204C0109206011092D80185
S113082061E088E00E943109E6CF60E088E00E9440
S1130830310987E092E00E9462062D813E812150B9
S1130840310940E050E0BE016F5F7F4FC8010E9454
S1130850620BCE0101960E946109C80126960FB66B
S1130860F894DEBF0FBECDBFDF91CF911F910F91E2
S1130870FF900895CF93DF9300D000D000D0CDB780
S1130880DEB787E092E00E94A805181619062CF539
S113089081E080930601CE0101960E94EA03BE0125
S11308A06F5F7F4F8CEC91E00E94410ACE0101966C
S11308B00E9461096CEC71E0CE0101960E94380A35
S11308C0CE0101960E944902CE0101960E9461095F
S11308D00E9409030E94730106C01092060183E07E
S11308E090E00E94480160E273E080E090E00E94A2
S11308F04A0860E088E00E94310926960FB6F89411
S1130900DEBF0FBECDBFDF91CF9108955058BB27F6
S1130910AA270E949E040C9469050E945B0538F086
S11309200E94620520F039F49F3F19F426F40C94D8
S113093058050EF4E095E7FB0C945205E92F0E944C
S11309407A0558F3BA17620773078407950720F0EE
S113095079F4A6F50C949C050EF4E0950B2EBA2FB1
S1130960A02D0B01B90190010C01CA01A0011124B1
S1130970FF27591B99F0593F50F4503E68F11A165D
S1130980F040A22F232F342F4427585FF3CF4695EE
S113099037952795A795F0405395C9F77EF41F1610
S11309A0BA0B620B730B840BBAF09150A1F0FF0FDA
S11309B0BB1F661F771F881FC2F70EC0BA0F621FC6
S11309C0731F841F48F4879577956795B795F795B6
S11309D09E3F08F0B0CF9395880F08F09927EE0F4B
S11309E09795879508950E942E0508F481E008954F
S11309F00E94FF046894B1110C949D0508950E940F
S1130A00820588F09F5798F0B92F9927B751B0F015
S1130A10E1F0660F771F881F991F1AF0BA95C9F77E
S1130A2014C0B13091F00E949C05B1E008950C947B
S1130A309C05672F782F8827B85F39F0B93FCCF32E
S1130A40869577956795B395D9F73EF490958095FB
S1130A50709561957F4F8F4F9F4F0895990F0008B0
S1130A60550FAA0BE0E8FEEF16161706E807F9077C
S1130A70C0F012161306E407F50798F0621B730B17
S1130A80840B950B39F40A2661F0232B242B252B98
S1130A9021F408950A2609F4A140A6958FEF811D3B
S1130AA0811D089597F99F6780E870E060E00895DC
S1130AB09FEF80EC089500240A9416161706180672
S1130AC00906089500240A9412161306140605064E
S1130AD00895092E0394000C11F4882352F0BB0FDF
S1130AE040F4BF2B11F460FF04C06F5F7F4F8F4F42
S1130AF09F4F089557FD9058440F551F59F05F3F7D
S1130B0071F04795880F97FB991F61F09F3F79F02B
S1130B1087950895121613061406551FF2CF4695AD
S1130B20F1DF08C0161617061806991FF1CF86952F
S1130B307105610508940895E894BB276627772713
S1130B40CB0197F908950E942E0508F48FEF0895BC
S1130B50FC01918D228D892F90E0805C9F4F821B38
S1130B6091098F7399270895FC01918D828D9817AF
S1130B7031F0828DE80FF11D858D90E008958FEF9F
S1130B809FEF0895FC01918D828D981761F0828DFD
S1130B90DF01A80FB11D5D968C91928D9F5F9F73AD
S1130BA0928F90E008958FEF9FEF0895FC01538D8D
S1130BB0448D252F30E0842F90E0821B930B541733
S1130BC010F0CF9608950197089585E497E0892B56
S1130BD049F080E090E0892B29F00E9445078111BB
S1130BE00C9400000895FC01848DDF01A80FB11D51
S1130BF0A35ABF4F2C91848D90E001968F7399274F
S1130C00848FA689B7892C93A089B1898C9183702C
S1130C1080648C93938D848D981306C00288F38925
S1130C20E02D80818F7D80830895EF92FF920F9352
S1130C301F93CF93DF93EC0181E0888F9B8D8C8D84
S1130C40981305C0E889F989808185FD26C0F62EB0
S1130C500B8D10E00F5F1F4F0F731127E02E8C8D4B
S1130C60E8120CC00FB607FCFACFE889F989808135
S1130C7085FFF5CFCE010E94F305F1CF8B8DFE01E8
S1130C80E80FF11DE35AFF4FF0829FB7F8940B8FE2
S1130C90EA89FB89808180620AC09FB7F894EE8953
S1130CA0FF896083E889F989808183708064808307
S1130CB09FBF81E090E0DF91CF911F910F91FF9052
S1130CC0EF900895CF93DF93EC01888D8823C9F0CA
S1130CD0EA89FB89808185FD05C0A889B9898C9141
S1130CE086FD0FC00FB607FCF5CF808185FFF2CFDC
S1130CF0A889B9898C9185FFEDCFCE010E94F305B7
S1130D00E7CFDF91CF910895CF92DF92EF92FF92D8
S1130D101F93CF93DF93EC016A017B01122FE889C3
S1130D20F98982E080834115514E61057105B1F066
S1130D3060E079E08DE390E0A70196010E945610EF
S1130D40DA01C9010197A109B109B695A79597954B
S1130D5087959C01211580E13807A8F0E889F98975
S1130D60108260E874E88EE190E0A70196010E9489
S1130D705610DA01C9010197A109B109B695A795E1
S1130D80979587959C01EC85FD853083EE85FF85DD
S1130D902083188EEC89FD891083EA89FB89808180
S1130DA080618083EA89FB89808188608083EA8905
S1130DB0FB89808180688083EA89FB8980818F7DBB
S1130DC08083DF91CF911F91FF90EF90DF90CF90C0
S1130DD0089580E090E0089508951F920F920FB651
S1130DE00F9211242F938F939F93EF93FF93E0918E
S1130DF01702F09118028081E0911D02F0911E0209
S1130E0082FD12C09081809120028F5F8F732091A8
S1130E102102821751F0E0912002F0E0E95FFD4FDA
S1130E20958F8093200201C08081FF91EF919F9163
S1130E308F912F910F900FBE0F901F9018951F92B6
S1130E400F920FB60F9211242F933F934F935F93FA
S1130E506F937F938F939F93AF93BF93EF93FF937E
S1130E6087E092E00E94F305FF91EF91BF91AF916B
S1130E709F918F917F916F915F914F913F912F91AE
S1130E800F900FBE0F901F90189587E092E00E947C
S1130E90A80521E0892B09F420E0822F0895E7E0DA
S1130EA0F2E01382128288EE93E0A0E0B0E0848343
S1130EB09583A683B78380EA91E09183808385EC50
S1130EC090E09587848784EC90E09787868780EC10
S1130ED090E0918B808B81EC90E0938B828B82EC01
S1130EE090E0958B848B86EC90E0978B868B118EAB
S1130EF0128E138E148E089508950E9491080E94F4
S1130F007C070E943901C5EED5E00E943A0420977F
S1130F10E1F30E94E505F9CFCF92DF92EF92FF92C1
S1130F200F931F93CF93DF936C017A018B01C0E081
S1130F30D0E0CE15DF0581F0D8016D918D01D60189
S1130F40ED91FC910190F081E02DC6010995892B6A
S1130F5011F02196EECF7E01C701DF91CF911F9151
S1130F600F91FF90EF90DF90CF9008956115710578
S1130F7079F0FB0101900020E9F73197AF01461B9E
S1130F80570BDC01ED91FC910280F381E02D099473
S1130F9080E090E00895DB0114964D915C911597E3
S1130FA06D917C91DC01ED91FC910280F381E02D47
S1130FB009940C94B6071F920F920FB60F92112446
S1130FC02F933F938F939F93AF93BF938091A502E9
S1130FD09091A602A091A702B091A8023091A40218
S1130FE023E0230F2D3720F40196A11DB11D05C068
S1130FF026E8230F0296A11DB11D2093A40280931D
S1131000A5029093A602A093A702B093A802809190
S1131010A9029091AA02A091AB02B091AC020196F0
S1131020A11DB11D8093A9029093AA02A093AB02C3
S1131030B093AC02BF91AF919F918F913F912F914B
S11310400F900FBE0F901F9018953FB7F8948091A2
S1131050A9029091AA02A091AB02B091AC0226B56C
S1131060A89B05C02F3F19F00196A11DB11D3FBFDC
S1131070BA2FA92F982F8827820F911DA11DB11D6A
S1131080BC01CD0142E0660F771F881F991F4A9566
S1131090D1F708958F929F92AF92BF92CF92DF9231
S11310A0EF92FF926B017C010E9425084B015C01C9
S11310B0C114D104E104F10401F10E94C80D0E949D
S11310C02508DC01CB0188199909AA09BB09883EC6
S11310D09340A105B10560F321E0C21AD108E108EB
S11310E0F10888EE880E83E0981EA11CB11CC1147F
S11310F0D104E104F10419F7DBCFFF90EF90DF9006
S1131100CF90BF90AF909F908F90089582309105BB
S113111038F0880F991F880F991F05970197F1F7E9
S11311200895789484B5826084BD84B5816084BD5B
S113113085B5826085BD85B5816085BDEEE6F0E04C
S1131140808181608083E1E8F0E0108280818260A8
S11311508083808181608083E0E8F0E08081816029
S11311608083E1EBF0E0808184608083E0EBF0E059
S1131170808181608083EAE7F0E0808184608083FD
S113118080818260808380818160808380818068A7
S113119080831092C1000895833081F028F4813057
S11311A099F08230A1F008958730A9F08830B9F021
S11311B08430D1F4809180008F7D03C080918000C1
S11311C08F7780938000089584B58F7702C084B5AB
S11311D08F7D84BD08958091B0008F7703C0809186
S11311E0B0008F7D8093B0000895CF93DF9390E09B
S11311F0FC01EF54FE4F2491FC01EB53FE4F84910C
S1131200882361F190E0880F991FFC01ED51FE4F96
S1131210C591D491FC01E752FE4FA591B49161119F
S113122009C09FB7F8948881209582238883EC9124
S11312302E230BC0623061F49FB7F8948881322F5B
S1131240309583238883EC912E2B2C939FBF06C06B
S11312508FB7F894E8812E2B28838FBFDF91CF912D
S113126008951F93CF93DF93282F30E0F901E356BD
S1131270FE4F8491F901EF54FE4FD491F901EB53E1
S1131280FE4FC491CC23C1F0162F81110E94CC08CB
S1131290EC2FF0E0EE0FFF1FE752FE4FA591B49143
S11312A09FB7F894111104C08C91D095D82302C033
S11312B0EC91DE2BDC939FBFDF91CF911F910895BA
S11312C00895FC01808191810C943611CF93DF93B2
S11312D0EC0188819981009711F00E9436111982DE
S11312E018821D821C821B821A82DF91CF9108957D
S11312F00F931F93CF93DF93EC018B016F5F7F4FAD
S1131300888199810E94BF11009731F09983888365
S11313101B830A8381E001C080E0DF91CF911F919C
S11313200F910895CF93DF93EC0188819981892BE4
S113133029F08A819B818617970760F4CE010E9469
S11313407809882341F08C819D81892B19F4E881E7
S1131350F981108281E0DF91CF910895EF92FF929D
S11313600F931F93CF93DF93EC017B018A01BA01A2
S11313700E949209811104C0CE010E94660907C02F
S11313801D830C83B701888199810E949B12CE0131
S1131390DF91CF911F910F91FF90EF900895FC0181
S11313A011821082138212821582148261157105D2
S11313B051F0FB0101900020E9F73197AF01461B82
S11313C0570B0C94AE0908950F931F93CF93DF939B
S11313D08C01EB01FC01808191810097D1F068813F
S11313E079816115710599F020E639E0232B79F0B4
S11313F0428153812C813D814217530740F00E9462
S11314009B128C819D81F8019583848313C00E9473
S1131410361188819981F801918380838A819B8127
S1131420938382838C819D8195838483198218821E
S11314301B821A821D821C82DF91CF911F910F9112
S11314400895CF93DF93EC01FB018617970761F0B2
S1131450608171816115710529F0448155810E9473
S1131460AE0902C00E946609CE01DF91CF910895B2
S1131470FC011182108213821282158214820C9450
S1131480210ACF93DF93EC018617970711F00E948E
S1131490E409CE01DF91CF910895CF93DF93EC015E
S11314A06115710559F0FB0101900020E9F73197AE
S11314B0AF01461B570B0E94AE0902C00E94660989
S11314C0CE01DF91CF9108950F931F93CF93DF93B4
S11314D0CDB7DEB762970FB6F894DEBF0FBECDBFAF
S11314E08C01CB01F80111821082138212821582C1
S11314F0148250E0BE016F5F7F4F0E94B012BE01A4
S11315006F5F7F4FC8010E944D0A62960FB6F89430
S1131510DEBF0FBECDBFDF91CF911F910F91089514
S1131520EF92FF920F931F93CF93DF93CDB7DEB764
S1131530A1970FB6F894DEBF0FBECDBF7C01CB01DF
S1131540BA01F70111821082138212821582148269
S113155042E0420F8E010F5F1F4F0E947E10BC01BC
S1131560C7010E944D0AA1960FB6F894DEBF0FBEC4
S1131570CDBFDF91CF911F910F91FF90EF90089510
S1131580EF92FF920F931F93CF93DF936115710531
S113159011F480E01CC041155105C1F07B01EC0140
S11315A08C819D818A01080F191FB801CE010E9408
S11315B09209882371F3288139818C819D81B70137
S11315C0820F931F0E949B121D830C8381E0DF9185
S11315D0CF911F910F91FF90EF900895CF93DF93D8
S11315E000D0CDB7DEB769831A8241E050E0BE0176
S11315F06F5F7F4F0E94C00A0F900F90DF91CF91D1
S11316000895CF93DF93EC01FB0144815581608100
S113161071810E94C00A811103C0CE010E94660933
S1131620CE01DF91CF910895CF93DF93EC01611543
S1131630710561F0FB0101900020E9F73197AF01DA
S1131640461B570B0E94C00A811103C0CE010E94A1
S11316506609CE01DF91CF910895DB011496ED91D7
S1131660FC911597DC0114962D913C9115972E1B36
S11316703F0B24173507A0F02D913C91211531051E
S113168079F0DB016D917C916115710549F0CA0116
S1131690AF01820F931F0E94A21221E0892B09F04F
S11316A020E0822F0895FC0144815581FB012481AF
S11316B035814217530720F040E050E00C942D0B85
S11316C080E00895BF92CF92DF92EF92FF920F9342
S11316D01F93CF93DF937C016B018A01E9012417E7
S11316E0350720F4812F8901C42FD82F68E771E0D2
S11316F0C7010E94CF09D60114968D919C9115972C
S113170008171907C8F48C179D0708F4EC01D601D3
S1131710ED91FC911197EC0FFD1FB08010826D913B
S11317207C91600F711FC7010E944D0AD601ED9193
S1131730FC91EC0FFD1FB082C701DF91CF911F9187
S11317400F91FF90EF90DF90CF90BF900895FC0130
S113175080819181009711F00C94851260E070E013
S1131760CB0108950C94A70B0F93FC0113821282F2
S113177082EB91E091838083648340872187028791
S113178088E083870F9108951F93CF93DF93EC0133
S1131790162F6C818DEA92E00E94A40D6B85612B5B
S11317A08DEA92E00E94530D8DEA92E0DF91CF9191
S11317B01F910C94C10D28E0FC01238760E00C9478
S11317C0C40B0F931F93CF938C01C62F64600E94A8
S11317D0C40B81E090E00E9486086C2F6B7FC801E7
S11317E00E94C40B82E390E0CF911F910F910C945F
S11317F086081F93CF93DF93EC01162F0E94C40B2E
S1131800612FCE01DF91CF911F910C94E10B0F93C7
S11318101F93CF93DF938C01C62FD42F607F642B4B
S11318200E94F90B80E1C89FB00111246D2BC801FF
S1131830DF91CF911F910F910C94F90B40E00C9420
S1131840070C61E00E941E0C80ED97E00C94860862
S113185062E00E941E0C80ED97E00C948608CF9302
S1131860DF93CDB7DEB728970FB6F894DEBF0FBE6F
S1131870CDBF9C0188E0E7E0F1E0DE011196019024
S11318800D928A95E1F7F9018185841710F44FEFE1
S1131890480FFE013196E40FF11DE40FF11D908114
S11318A0690F6068C90128960FB6F894DEBF0FBEB1
S11318B0CDBFDF91CF910C941E0CFC016681262FC5
S11318C0246026836C600C941E0C41E00E94070C7B
S11318D081E090E00895CF93DF93EC018DEA92E0EC
S11318E00E94920D1D828985823010F098E09D83BC
S11318F09A85992329F0813019F48D8184608D8330
S113190062E370E080E090E00E944A086B85CE01BB
S11319100E94C40B68EE73E080E090E00E944A08E5
S113192060E3CE010E94F90B84E991E10E948608EC
S113193060E3CE010E94F90B84E991E10E948608DC
S113194060E3CE010E94F90B86E990E00E948608CC
S113195060E2CE010E94F90B6D816062CE010E94AB
S11319601E0C84E08E83CE010E945D0CCE010E9489
S1131970210C82E08F8366E0CE010E941E0CCE0112
S1131980DF91CF910C94280C8091E10290E020919A
S1131990E202821B910908959091E2028091E10292
S11319A0981750F4E92FF0E0ED51FD4F208130E01D
S11319B09F5F9093E20202C02FEF3FEFC9010895A9
S11319C0E091E2028091E102E81730F4F0E0ED5199
S11319D0FD4F808190E008958FEF9FEF0895089563
S11319E0CF93DF93EC01E091B902F091BA02309702
S11319F0F1F09091E2028091E1029817C0F090E03A
S1131A00292F30E02617370754F4DE01A20FB31F45
S1131A104C91D901AD51BD4F4C939F5FF1CF1092C2
S1131A20E2026093E102CB01DF91CF910994DF914F
S1131A30CF910895E091BB02F091BC02309729F058
S1131A401092BF021092BE0209940895CF92DF92C1
S1131A50EF92FF920F931F93CF93DF937C01CB01FF
S1131A608A012091BD02222389F0EB016B01C40E8F
S1131A70D51ECC15DD0569F06991D701ED91FC9176
S1131A800190F081E02DC7010995F3CF642F0E94E6
S1131A903D0EC801DF91CF911F910F91FF90EF9000
S1131AA0DF90CF900895CF93DF931F92CDB7DEB729
S1131AB069832091BD022223D1F02091BE022032FD
S1131AC040F021E030E0FC013383228380E090E0A9
S1131AD015C08091BF02E82FF0E0E054FD4F9981DA
S1131AE090838F5F8093BF028093BE0205C061E044
S1131AF0CE0101960E943D0E81E090E00F90DF91AF
S1131B00CF910895FC011382128288EE93E0A0E045
S1131B10B0E084839583A683B7838EEB91E09183B1
S1131B20808308951092E2021092E1021092BF02A3
S1131B301092BE020E94C90D8AE19DE00E946A0EC5
S1131B4080EF9CE00C94650E81E08093BD0260936D
S1131B50E0021092BF021092BE0208950F93062F66
S1131B6021E04091BE0260EC72E08091E0020E94AC
S1131B70E70D1092BF021092BE021092BD020F91A7
S1131B80089561E00C94AE0D8DEA92E00C94820D00
S1131B9008951092700381E080936E0310926D0398
S1131BA061E082E10E94310961E083E10E94310930
S1131BB0E9EBF0E080818E7F808380818D7F80835C
S1131BC088E48093B80085E48093BC0008950F9363
S1131BD0413208F04AC0909170039111FCCF32E079
S1131BE03093700300936E033FEF3093030310921E
S1131BF0480340934703562FA9E4B3E0FB013E2F6B
S1131C00351B341718F431913D93F9CF10926F03BB
S1131C1030916F03880F832B80936F0380916D0342
S1131C20813061F410926D0380916F038093BB0047
S1131C308091BC0083FDF8CF85EC01C085EE8093D4
S1131C40BC00222321F0809170038230D1F3809173
S1131C5003038F3F79F080910303803241F0809138
S1131C600303803331F094E005C091E003C092E0B7
S1131C7001C093E0892F0F91089540912503262FE9
S1131C8030E0240F311D21323105DCF42091700342
S1131C902430C9F4FC0180E090E0861758F43091B8
S1131CA025032191DC01A95DBC4FA30FB11D2C9329
S1131CB00196F3CF80912503680F6093250380E09C
S1131CC0089581E0089582E0089590936A038093D3
S1131CD06903089590936C0380936B03089585EDD5
S1131CE08093BC008091BC0084FDFCCF10927003F3
S1131CF0089585EC8093BC001092700308951F92A0
S1131D000F920FB60F9211242F933F934F935F932B
S1131D106F937F938F939F93AF93BF93EF93FF93AF
S1131D208091B900887F803609F49EC078F58832A6
S1131D3009F45DC090F4803109F456C038F4882366
S1131D4009F4F5C0883009F44FC0F5C0883109F4AE
S1131D504EC0803209F45FC0EEC0803409F46AC01A
S1131D6058F4803309F457C0883309F0E4C08093F1
S1131D7003030E94790EDFC0803509F44FC0883513
S1131D8009F45DC0883409F0D6C0D3C0883909F499
S1131D90C4C0A8F4883709F467C038F4883609F455
S1131DA063C0803709F460C0C6C0883809F4B5C080
S1131DB0803909F45FC0803809F0BDC05BC0803B46
S1131DC009F483C038F4803A09F466C0883A09F407
S1131DD07CC0B1C0803C09F4A4C0883C09F4A1C013
S1131DE0883B09F487C0A7C080916F0310C090910D
S1131DF0480380914703981770F5E091480381E008
S1131E008E0F80934803F0E0E75BFC4F8081809362
S1131E10BB0085EC83C0809303038BC0E09148032F
S1131E2081E08E0F809348038091BB00F0E0E75B74
S1131E30FC4F808390914803809147036BC0E091ED
S1131E40480381E08E0F809348038091BB00F0E04B
S1131E50E75BFC4F808380916E0381116AC081E04F
S1131E6080936D0384EA5EC083E0809370031092D4
S1131E700403CFCF80910403803208F04EC0E09178
S1131E80040381E08E0F809304038091BB00F0E093
S1131E90EB5FFC4F8083BDCF0E94790E80910403D9
S1131EA0803230F4E0910403F0E0EB5FFC4F1082E9
S1131EB06091040370E0E0916903F0916A0385E0A6
S1131EC093E009951092040336C084E08093700374
S1131ED01092260310922503E0916B03F0916C039A
S1131EE0099580912503811105C081E08093250324
S1131EF010922703E091260381E08E0F809326033E
S1131F00F0E0E95DFC4F80818093BB009091260353
S1131F1080912503981708F47CCF85E88093BC0052
S1131F200AC085EC8093BC001092700304C0109228
S1131F3003030E946F0EFF91EF91BF91AF919F91A8
S1131F408F917F916F915F914F913F912F910F905E
S1131F500FBE0F901F901895E89409C097FB3EF4AC
S1131F6090958095709561957F4F8F4F9F4F9923E2
S1131F70A9F0F92F96E9BB279395F6958795779560
S1131F806795B795F111F8CFFAF4BB0F11F460FF20
S1131F901BC06F5F7F4F8F4F9F4F16C0882311F078
S1131FA096E911C0772321F09EE8872F762F05C08C
S1131FB0662371F096E8862F70E060E02AF09A9527
S1131FC0660F771F881FDAF7880F9695879597F91C
S1131FD008950E94FC0F0C9469050E945B0538F07B
S1131FE00E94620520F0952311F00C9452050C9484
S1131FF0580511240C949D050E947A0570F3959F51
S1132000C1F3950F50E0551F629FF001729FBB27EB
S1132010F00DB11D639FAA27F00DB11DAA1F649F87
S11320206627B00DA11D661F829F2227B00DA11D3A
S1132030621F739FB00DA11D621F839FA00D611DC0
S1132040221F749F3327A00D611D231F849F600DE1
S1132050211D822F762F6A2F11249F5750409AF00A
S1132060F1F088234AF0EE0FFF1FBB1F661F771F96
S1132070881F91505040A9F79E3F510580F00C9461
S113208052050C949D055F3FE4F3983ED4F3869586
S113209077956795B795F795E7959F5FC1F7FE2B01
S11320A0880F911D9695879597F90895A1E21A2EA8
S11320B0AA1BBB1BFD010DC0AA1FBB1FEE1FFF1FE8
S11320C0A217B307E407F50720F0A21BB30BE40B38
S11320D0F50B661F771F881F991F1A9469F760957F
S11320E07095809590959B01AC01BD01CF01089539
S11320F0EE0FFF1F0590F491E02D0994EF920F93DA
S11321001F93CF93DF93E80147FD02C034E001C081
S113211034E1042E000C550B57FF03C05195419533
S11321205109E32E022F242FAE010E94E012CE01AA
S1132130DF91CF911F910F91EF9008950F931F930B
S1132140CF93DF938230910510F482E090E0E09128
S11321507303F091740320E030E0A0E0B0E0309726
S113216019F1408151810281138148175907C8F040
S11321708417950769F4109731F012960C9312970F
S113218013961C9327C0009373031093740322C007
S11321902115310519F04217530718F49A01BD01AE
S11321A0EF01DF01F801DBCF21153105F9F0281B20
S11321B0390B2430310580F48A819B8161157105C6
S11321C021F0FB019383828304C090937403809372
S11321D07303FE01329644C0FE01E20FF31F8193A4
S11321E0919322503109398328833AC02091710395
S11321F030917203232B41F42091020130910301A9
S113220030937203209371032091000130910101F6
S11322102115310541F42DB73EB740910401509189
S11322200501241B350BE0917103F0917203E21751
S1132230F307A0F42E1B3F0B2817390778F0AC01E5
S11322404E5F5F4F2417350748F04E0F5F1F5093C2
S11322507203409371038193919302C0E0E0F0E034
S1132260CF01DF91CF911F910F910895CF93DF9309
S1132270009709F481C0FC01329713821282A09165
S11322807303B0917403109781F420813181820F1C
S1132290931F20917103309172032817390751F568
S11322A0F0937203E093710367C0ED0120E030E026
S11322B0CE17DF0740F44A815B819E014115510529
S11322C0F1F0EA01F5CFD383C28340815181840FB9
S11322D0951FC817D90759F488819981840F951FD0
S11322E00296918380838A819B81938382832115C3
S11322F0310529F4F0937403E09373033DC0E901BD
S1132300FB83EA8349915991C40FD51FEC17FD074C
S113231061F480819181840F951F0296E90199836C
S11323208883828193819B838A83E0E0F0E0129624
S11323308D919C911397009719F0FD01DC01F7CF63
S11323408D919C9111979D012E5F3F4F820F931F9A
S113235020917103309172032817390769F430977B
S113236029F4109274031092730302C01382128230
S1132370B0937203A0937103DF91CF910895A0E00D
S1132380B0E0E5ECF1E10C949A16EC01009721F42D
S1132390CB010E949E10B4C0FC01E60FF71F9C0104
S11323A022503109E217F30708F4A8C0D9010D91AE
S11323B01C91119706171707B0F00530110508F4A2
S11323C09BC0C80104978617970708F495C002506C
S11323D01109061B170B019311936D937C93CF0185
S11323E00E94361189C05B01A01AB10A4C01800E0B
S11323F0911EA0917303B0917403612C712CE12C94
S1132400F12C109709F446C08D919C911197A81551
S1132410B905B1F56C0142E0C40ED11CCA14DB0449
S113242078F14C018A189B08640142E0C40ED11C67
S11324301296BC9012971396AC91B5E0CB16D104CA
S113244040F0B282A38391828082D9016D937C9300
S113245009C00E5F1F4F800F911FF9019183808384
S1132460EB2DFA2FE114F10431F0D7011396FC930C
S1132470EE93129741C0F0937403E09373033CC04E
S11324806816790608F43C017D0112960D90BC9102
S1132490A02DB7CF8091710390917203881699068D
S11324A0E1F466167706C8F4809100019091010169
S11324B0009741F48DB79EB74091040150910501F6
S11324C0841B950BE817F907C8F4F0937203E093A3
S11324D07103F901718360830FC0CB010E949E10C8
S11324E07C01009759F0A801BE010E949212CE010E
S11324F00E943611C70104C0CE0102C080E090E002
S1132500CDB7DEB7EEE00C94B616662777270C94A9
S11325103A1491110C946016803219F08950855048
S1132520C8F70895FB01DC0102C001900D924150EF
S11325305040D8F70895FB01DC0101900D92002072
S1132540E1F70895FB01DC014150504030F08D91DA
S11325500190801919F40020B9F7881B990B08958C
S11325604532510520F4423010F00C94BB12FB01AB
S11325701082CB010895BB274A3031F4992322F409
S1132580BDE2909581959F4F0C94C712BB27FB0128
S11325905527AA27880F991FAA1FA41710F0A41B58
S11325A083955051B9F7A05DAA3308F0A95DA193B2
S11325B0009779F7B111B1931192CB010C947B166A
S11325C0A9E0B0E0E6EEF2E10C949C166A01122F49
S11325D0B02E2BE3201720F0FF24F394F00E02C05A
S11325E02CE3F22E0F2D27E0AE014F5F5F4F0E94C8
S11325F08815BC014981842F8970813031F0E1FC58
S113260006C0E0FE06C090E205C09DE203C09BE266
S113261001C090E05E2D507143FF3CC0911102C097
S113262083E001C084E0811718F4212F281B01C026
S113263020E051110BC0F601822F30E2882319F0FB
S113264031938150FBCFC20ED11C20E0992329F095
S1132650D6019C93F60131966F01C6010396E2FE02
S11326600AC03EE4D6013C9341E411964C93119781
S113267012963C9306C03EE6F601308341E6418360
S11326803283FC01322F40E2332309F442C04193E8
S11326903150FACF42FF44C0911102C083E001C01F
S11326A084E0811718F4212F281B01C020E0511168
S11326B00BC0F601822F30E2882319F03193815048
S11326C0FBCFC20ED11C20E0992329F0D6019C93A4
S11326D0F60131966F01C6010396E2FE0BC039E4A0
S11326E0D6013C933EE411963C93119736E412963E
S11326F03C9307C039E6F60130833EE6318336E683
S11327003283FC01322F40E2332319F041933150DC
S1132710FBCFFC01E20FF11D10828EEF9FEFA6C0EC
S113272021E030E0911102C020E030E016161706D7
S11327301CF4FB01319602C0E1E0F0E02E0F3F1FD4
S1132740BB2021F0EB2DF0E0319602C0E0E0F0E098
S11327502E0F3F1FE12FF0E02E173F071CF4121B32
S1132760212F01C020E08E2D887159F4F601822FAB
S113277030E2882319F031938150FBCFC20ED11C73
S113278020E0992329F0D6019C93F60131966F013C
S113279051110BC0F601822F90E3882319F0919315
S11327A08150FBCFC20ED11C20E00F2D060F9A8161
S11327B0342F307144FF03C0913309F401501016D3
S11327C024F4093018F008E001C001E0AB0177FF00
S11327D002C040E050E0FB01E41BF50BA1E0B0E0D7
S11327E0AC0FBD1FEA0FFB1F8EE2A82E4B01801A0F
S11327F091080B2D10E01195019511094F3FBFEF82
S11328005B0721F4D601AC9211966D01641775072C
S11328102CF08416950614F4818101C080E34150A4
S113282051093196D60111967D014017510724F0C4
S1132830D6018C936701E2CF6417750739F4963398
S113284020F4953319F4311101C081E3F60180833A
S1132850F701822F90E2882319F091938150FBCFE6
S1132860F701E20FF11D108280E090E02996ECE080
S11328700C94B816A0E0B0E0E0E4F4E10C949C16EB
S1132880EC016B016115710519F0FB0191838083E3
S11328907E01FFEFEF1AFF0A0881802F90E00E946B
S11328A08912892B11F0E701F3CF0D3239F47E013F
S11328B082E0E80EF11C098111E008C00B3229F412
S11328C07E0192E0E90EF11C098110E0E7012197F5
S11328D043E050E060E770E0CE010E946316892B6C
S11328E0C1F4239645E050E06BE670E0CE010E940F
S11328F06316892B09F42596C114D10419F0F60145
S1132900D183C0831111F6C060E070E080E89FE7D6
S1132910FAC043E050E068E670E0CE010E9463161E
S1132920892B59F4C114D10409F4E9C0F2E0EF0E83
S1132930F11CF601F182E082E2C020E030E0A9015E
S1132940C0E0D0E0F70180EDA82EA00E89E08A1542
S113295030F1912F9260B92E812F887012FF04C03C
S1132960811124C0219622C081112197A5E0B0E0F5
S11329700E948B16DC01CB01880F991FAA1FBB1F75
S11329809C01AD012A0D311D411D511D283989E9D4
S11329903807480789E1580748F0166006C09EEFDB
S11329A0A9120AC013FD40C01860B12E8FEFE81AB7
S11329B0F80A00811B2DC6CF802F8F7D8534A1F5A9
S11329C080818D3211F4106106C08B3221F0319672
S11329D061E070E004C08181329662E070E080536F
S11329E08A3018F0E61BF70B1FC060E070E0603817
S11329F09CE079075CF4DB01AA0FBB1FAA0FBB1F85
S1132A006A0F7B1F660F771F680F711D3196DF01F8
S1132A1011978C9180538A3050F314FF03C0719541
S1132A2061957109C60FD71F11FF08C0C114D104E5
S1132A3029F0CF010197F60191838083CA01B9017E
S1132A400E94AC0F212F2370233019F04B015C013D
S1132A5006C04B015C01B7FAB094B7F8B09420E01B
S1132A6030E0A901C501B4010E94F304882309F4EC
S1132A703EC0D7FF06C0D195C195D10907E810E043
S1132A8002C00FE910E06801F8E1CF1AD10890E222
S1132A90E92EF12CCE15DF0574F0F801259135915E
S1132AA045915491C501B4010E94E90F4B015C01A9
S1132AB0CE19DF09EFCF04501109F594E7940C15F2
S1132AC01D0541F78A2D880F8B2D881F8F3F49F0F4
S1132AD020E030E0A901C501B4010E94F304811192
S1132AE006C082E290E09093760380937503C5015B
S1132AF0B40109C060E070E080E89FEF04C060E0CA
S1132B0070E080EC9FE7CDB7DEB7ECE00C94B8162C
S1132B10283008F027E03327DA01990F311D87FDAB
S1132B20916000966105710539F432602E5F3D9322
S1132B3030E32A95E1F708959F3F30F0803871051E
S1132B40610509F03C5F3C5F3D93913008F080687B
S1132B50911DDF93CF931F930F93FF92EF92192F41
S1132B60987F9695E92F96959695E90FFF27E35060
S1132B70FF4F99273327EE24FF24A701E70105908F
S1132B800894079428F4360FE71EF81E491F511DB8
S1132B90660F771F881F991F0694A1F70590079465
S1132BA028F4E70EF81E491F561FC11D770F881F12
S1132BB0991F661F0694A1F70590079428F4F80E50
S1132BC0491F561FC71FD11D880F991F661F771FE6
S1132BD00694A1F70590079420F4490F561FC71FC8
S1132BE0D81F990F661F771F881F0694A9F7849131
S1132BF01095177041F0D695C79557954795F7945A
S1132C00E7941A95C1F7E3EAF0E0689415901591FA
S1132C1035916591959105907FE27395E118F10ADC
S1132C20430B560BC90BD009C0F7E10CF11E431F2F
S1132C30561FC91FD01D7EF4703311F48A95E6CF58
S1132C40E894015030F0080F0AF40027021708F442
S1132C50202F2395022F7A3328F079E37D932A9548
S1132C60E9F710C07D932A9589F6069497956795A0
S1132C70379517951794E118F10A430B560BC90BB6
S1132C80D00998F023957E9173957A3308F070E318
S1132C907C932013B8F77E9170617D9330F0839517
S1132CA071E37D9370E32A95E1F71124EF90FF908F
S1132CB00F911F91CF91DF91992787FD90950895EA
S1132CC0992788270895FB01DC014150504088F082
S1132CD08D9181341CF08B350CF4805E65916134E8
S1132CE01CF06B350CF4605E861B611171F3990B5B
S1132CF00895881BFCCFDC01FC01672F71917723B9
S1132D00E1F7329704C07C916D9370836291AE17A2
S1132D10BF07C8F308950E94CD16A59F900DB49FD8
S1132D20900DA49F800D911D112408952F923F9220
S1132D304F925F926F927F928F929F92AF92BF92C7
S1132D40CF92DF92EF92FF920F931F93CF93DF9373
S1132D50CDB7DEB7CA1BDB0B0FB6F894DEBF0FBED0
S1132D60CDBF09942A88398848885F846E847D841D
S1132D708C849B84AA84B984C884DF80EE80FD801F
S1132D800C811B81AA81B981CE0FD11D0FB6F89495
S1132D90DEBF0FBECDBFED010895A29FB001B39F6A
S1132DA0C001A39F700D811D1124911DB29F700D50
S1132DB0811D1124911D089510E0CAEFD0E004C0D4
S1132DC0FE010E9478102196CB3FD107C9F7F894F1
S1052DD0FFCF2F
S1132DD20000770320000100004000140054005357
S1132DE274617274696E67204D6F6E69746F7200DC
S1132DF2444154412053594E4348204552524F5264
S1132E020054454D502053454E534F522045525283
S1132E124F5200434F4E442E2053454E534F52209F
S1132E224552524F520050482053454E534F522060
S1132E324552524F520054454D503A200050483AA0
S1132E422000434F4E443A200024303A0024323AC0
S1132E520024313A0024453A004E4F524D004C4F63
S1132E6257004849474800424F4F540000000000B1
S1132E7215068C07D6056206A805C205B40500002E
S1132E820000650C8C07E906EC0600000000530DF7
S10F2E92260DE906EF0CC40CCC0CE00C7F
S9030000FC
